:100000000C9448000C94FA070C94FA070C94FA0725
:100010000C94FA070C94FA070C94FA070C94FA075C
:100020000C94FA070C94FA070C94FA070C94B60493
:100030000C94FA070C946B050C94FA070C94FA07CD
:100040000C94FA070C94FA070C94FA070C94FA072C
:100050000C94FA0705A84CCDB2D44EB93836A90293
:100060000C50B9918688083CA6AAAA2ABE000000B6
:10007000803F0060006280006200AC000FF800ACBE
:1000800000C98000C900CA0000E700CA00CD800096
:1000900011241FBECFE5D4E0DEBFCDBFE2E7F0E024
:1000A00040E017C0B591A59135912591059107FDC7
:1000B0000CC095918591EF01F92FE82F05900D92D5
:1000C000A217B307D9F7FE0104C01D92A217B30708
:1000D000E1F7EF38F40731F70E94D7070C9470006E
:0400E000F894FFCFC2
:0300E4000D3E00CE
:0100E7000414
:1000E8002F923F924F925F926F927F928F92AF9230
:1000F800BF92CF92DF92EF920F931F93CF93DF932C
:1001080000D000D000D0CDB7DEB73B01882E5A0111
:1001180019014115510521F0FA0160837183828329
:100128002114310429F0C1010297839708F01AC1FC
:10013800E82C6301FFEFCF1ADF0AEF0AF3011491ED
:1001480087FC1081812F90E00E94A3074C2D3D2D44
:100158002E2D892B19F036018E2CEACF1D3269F429
:10016800E82C630152E0C50ED11CE11CE42FF32FEB
:10017800149127FD108101E00EC01B3259F4E82CC0
:10018800630182E0C80ED11CE11CE42FF32F149107
:1001980027FD108100E02114310409F190E12916AE
:1001A800310429F43FC010E32114310421F1F8E0AF
:1001B8002F16310401F154F432E02316310421F5ED
:1001C800412C512C612C50E4752E4BC04AE024166A
:1001D800310439F050E125163104B1F43DC0103333
:1001E80019F13AE0232E312C4CEC442E542C642C7B
:1001F8004CE0742E36C098E0292E312C412C512C1D
:10020800612C20E1722E2DC060E070E080E090E863
:100218009101032C000C440B550B0E948D062901FB
:100228003A011FC01033C1F4F6018491E7FC8081C4
:100238008F7D883509F0B7CFAE2DC6010196A11D77
:10024800FC011491A7FD1081E2E0CE0ED11CE11C47
:10025800026060E1262E312C412C512C612C88E063
:10026800782EA0E060E070E0CB019101032C000C37
:10027800440B550B29833A834B835C83E0EDE10FF4
:10028800EA3060F02FEB210F2A3110F4E9EC05C0B9
:100298002FE9210F2A3150F5E9EAE10F2E2F30E03E
:1002A800221533051CF5A7FD18C046165706680623
:1002B800790680F029813A814B815C810E9436075A
:1002C8006E0F711D811D911D61307105810530E82A
:1002D800930710F0AFEF01C0A1E0F6011491E7FC1D
:1002E80010814FEFC41AD40AE40AC8CF202F217016
:1002F800A114B104B1F0AA2349F051E0C51AD108FC
:10030800E108F501C082D182E2820BC001FF1DC065
:10031800F2E0CF1AD108E108F501C082D182E28269
:1003280014C0A7FF12C0222329F060E070E080E02B
:1003380090E804C06FEF7FEF8FEF9FE722E230E095
:10034800309361002093600009C0222381F09095CA
:100358008095709561957F4F8F4F9F4F462F372F10
:10036800282F12C040E030E020E090E00DC097FF59
:10037800F5CF82E290E090936100809360006FEF88
:100388007FEF8FEF9FE7EACF642F732F822F269698
:100398000FB6F894DEBF0FBECDBFDF91CF911F918E
:1003A8000F91EF90DF90CF90BF90AF908F907F909C
:0C03B8006F905F904F903F902F90089541
:1003C4000F931F93CF93DF9300D01F92CDB7DEB767
:1003D4008091CC00882309F46DC0813009F099C064
:1003E40069E070E08CEA90E00E947F070E94630756
:1003F4008823E1F38091AC00803409F047C08091F8
:10040400B4008B3389F080E042C0822F90E0FC017D
:10041400E255FF4F3081E1E0F0E0EC0FFD1FE80F03
:10042400F91F30832F5F01C020E0233070F3BE0139
:100434006F5F7F4F80E80E94F0078093CB0020E03D
:100444000EC0822F90E0FC01EF54FF4F3081E1E0B9
:10045400F0E0EC0FFD1FE80FF91F30832F5F23300E
:1004640080F3BE016F5F7F4F80E80E94F0078093A6
:10047400CA008091AD0080538093C9000AC0E82F60
:10048400F0E0E455FF4F10828F5F01C080E08930B7
:10049400B0F369E070E08CEA90E00E947F0762E0CC
:1004A40070E084EE90E0A0E00E9413070E945507DC
:1004B4008823E1F31091C900143018F56091CA0043
:1004C40070E080E090E00E94F4049B01AC0160E0E5
:1004D40070E080E89FE30E94E80720E030E04AE70C
:1004E40054E40E94EC07E12FF0E0EE0FFF1FEB5401
:1004F400FF4F008111810E94A3058091CB00F80178
:1005040009950E94630791E0813009F090E090938F
:10051400CC000F900F900F90DF91CF911F910F910E
:02052400089538
:100526008F929F92AF92BF92CF92DF92EF92FF92FD
:10053600CF93C82F8FEF87BB18BA70E080E090E0AA
:100546000E94F4046B017C010E94AF066C2F70E0E0
:1005560080E090E00E94F4044B015C0120E030E072
:1005660040EA50E40E94E8070E94A30568BBC70161
:10057600B6010E94AF06A5019401C501B4010E940F
:10058600B50720E030E040EA50E40E94E8070E9408
:10059600A30568BBC701B6010E94AF0620E030E0A4
:1005A60040E450E4C501B4010E94EC0720E030E0CD
:1005B60040EA50E40E94E8070E94A30568BBC70111
:1005C600B6010E94AF0620E030E040E850E4C501E5
:1005D600B4010E94EC0720E030E040EA50E40E94BB
:1005E600E8070E94A30568BBC701B6010E94AF06D3
:1005F600C8BBC701B6010E94AF06CF91FF90EF902E
:0E060600DF90CF90BF90AF909F908F9008959F
:1006140010C00E94C20758F00E94BB0740F029F4A2
:100624005F3F29F00C94DD0751110C94CA070C9418
:10063400F4070E946B0668F39923B1F3552391F3F1
:10064400951B550BBB27AA2762177307840738F03D
:100654009F5F5F4F220F331F441FAA1FA9F335D09A
:100664000E2E3AF0E0E832D091505040E695001C4E
:10067400CAF72BD0FE2F29D0660F771F881FBB1F08
:10068400261737074807AB07B0E809F0BB0B802DE6
:10069400BF01FF2793585F4F3AF09E3F510578F012
:1006A4000C94DD070C94CA075F3FE4F3983ED4F33F
:1006B400869577956795B795F7959F5FC9F7880FE6
:1006C400911D9695879597F90895E1E0660F771F38
:1006D400881FBB1F621773078407BA0720F0621BC9
:0E06E400730B840BBA0BEE1F88F7E095089598
:1006F200AF92BF92CF92DF92EF92FF920F931F932E
:10070200CF93DF93CDB7DEB7CA54D1090FB6F894B1
:10071200DEBF0FBECDBFA82EB62E8FEF87BB8AE4F9
:10072200E2E6F0E0DE01119601900D928A95E1F782
:1007320000E010E034C06A2D70E080E090E00E949A
:10074200F6046B017C01F801EE0FFF1F81E090E0DF
:100752008C0F9D1FE80FF91F60817181072E000C1D
:10076200880B990B0E94F6040E94AC079B01AC0116
:10077200C701B6010E94EC079B01AC01C701B6019B
:100782000E94B5070E94A30568BB6B2D70E080E054
:1007920090E00E94F4040E94AF060F5F1F4F0432E4
:1007A20011054CF2C65BDF4F0FB6F894DEBF0FBEE9
:1007B200CDBFDF91CF911F910F91FF90EF90DF900E
:0807C200CF90BF90AF900895A5
:1007CA000FC00E94BB0738F00E94C20720F0952391
:1007DA0011F00C94DD070C94F40711240C94CA0749
:1007EA000E946B0670F3959FC1F3950F50E0551F59
:1007FA00629FF001729FBB27F00DB11D639FAA276C
:10080A00F00DB11DAA1F649F6627B00DA11D661FBA
:10081A00829F2227B00DA11D621F739FB00DA11DDB
:10082A00621F839FA00D611D221F749F3327A00D95
:10083A00611D231F849F600D211D822F762F6A2F31
:10084A0011249F5750409AF0F1F088234AF0EE0F96
:10085A00FF1FBB1F661F771F881F91505040A9F7C3
:10086A009E3F510580F00C94DD070C94CA075F3F48
:10087A00E4F3983ED4F3869577956795B795F795FF
:10088A00E7959F5FC1F7FE2B880F911D9695879577
:04089A0097F908952D
:10089E0011C00E94BB0738F00E94C20720F039F445
:1008AE009F3F19F426F40C94F4070EF4E095E7FB41
:1008BE000C94DD07E92F0E946B0658F3BA176207F6
:1008CE0073078407950720F079F4A6F50C94C907F1
:1008DE000EF4E0950B2EBA2FA02D0B01B90190014D
:1008EE000C01CA01A0011124FF27591B99F0593F91
:1008FE0050F4503E68F11A16F040A22F232F342FD9
:10090E004427585FF3CF469537952795A795F04026
:10091E005395C9F77EF41F16BA0B620B730B840B3B
:10092E00BAF09150A1F0FF0FBB1F661F771F881FF3
:10093E00C2F70EC0BA0F621F731F841F48F487954B
:10094E0077956795B795F7959E3F08F0B0CF93953D
:0E095E00880F08F09927EE0F9795879508955A
:10096C001F920F920FB60F9211242F933F934F9318
:10097C005F938F939F93EF93FF93F8948CB1409177
:10098C00BD005091BE002091BF003091C0004217B5
:10099C005307B0F48032A1F02091BD003091BE001D
:1009AC00E091C100F091C200E20FF31F80838091AF
:1009BC00BD009091BE0001969093BE008093BD0047
:1009CC007894FF91EF919F918F915F914F913F910F
:0C09DC002F910F900FBE0F901F901895E8
:1009E800E89409C097FB3EF49095809570956195C1
:1009F8007F4F8F4F9F4F9923A9F0F92F96E9BB2777
:100A08009395F695879577956795B795F111F8CFF2
:100A1800FAF4BB0F11F460FF1BC06F5F7F4F8F4F5D
:100A28009F4F16C0882311F096E911C0772321F053
:100A38009EE8872F762F05C0662371F096E8862FEB
:100A480070E060E02AF09A95660F771F881FDAF742
:0A0A5800880F9695879597F9089589
:100A6200CF93DF9300D000D01F92CDB7DEB789E1DC
:100A72008A8319821B8288ED8C8386E88D83CE015E
:100A820001960E948C0780E006C0E82FF0E0E45552
:100A9200FF4F10828F5F8930C0F3E5EBF0E08FECFF
:100AA20096E09183808383E992E09383828388E452
:100AB20096E09583848389E793E09783868381E038
:100AC2008093CC000F900F900F900F900F90DF91BA
:040AD200CF91089523
:100AD6001F920F920FB60F9211242F933F938F936D
:100AE6009F93EF93FF93F8948091C3009091C40075
:100AF60001969093C4008093C3002091C300309167
:100B0600C4008091C5009091C6002817390760F48B
:100B16008091C3009091C400E091C700F091C80095
:100B2600E80FF91F80818CB97894FF91EF919F911E
:100B36008F913F912F910F900FBE0F901F90189598
:100B46000E94730688F09F5798F0B92F9927B751DE
:100B5600B0F0E1F0660F771F881F991F1AF0BA955B
:100B6600C9F714C0B13091F00E94C907B1E00895E9
:100B76000C94C907672F782F8827B85F39F0B93FDB
:100B8600CCF3869577956795B395D9F73EF490950E
:0E0B96008095709561957F4F8F4F9F4F08950A
:100BA4000E94730610F40C94F407E894E0E0BB2769
:100BB4009F57F0F02AED3FE049EC06C0EE0FBB0F63
:100BC400661F771F881F28F0B23A620773078407ED
:100BD40028F0B25A620B730B840BE3959A9572F763
:100BE400803830F49A95BB0F661F771F881FD2F7A1
:060BF40090480C94730709
:100BFA00DF93CF931F930F93FF92EF92DF927B01C4
:100C0A008C01689406C0DA2EEF010E94E503FE010A
:100C1A00E894A5912591359145915591A6F3EF0157
:100C2A000E944F04FE019701A801DA9469F7DF9048
:0E0C3A00EF90FF900F911F91CF91DF910895E1
:100C4800990F0008550FAA0BE0E8FEEF16161706D5
:100C5800E807F907C0F012161306E407F50798F03D
:100C6800621B730B840B950B39F40A2661F0232B56
:100C7800242B252B21F408950A2609F4A140A695D2
:080C88008FEF811D811D08950D
:100C90009FEF97BB97BB90E19A95F1F700C040E0BA
:100CA00050E006C048BB00C000C000004F5F5F4F6F
:100CB000282F30E042175307ACF300C000C00000FB
:100CC00006C028BB00C000C0000021503109121628
:060CD0001306BCF30895B9
:100CD60057FD9058440F551F59F05F3F71F04795E7
:100CE600880F97FB991F61F09F3F79F087950895CC
:100CF600121613061406551FF2CF4695F1DF08C0EB
:100D0600161617061806991FF1CF86957105610507
:040D160008940895A0
:100D1A00A1E21A2EAA1BBB1BFD010DC0AA1FBB1FF5
:100D2A00EE1FFF1FA217B307E407F50720F0A21B67
:100D3A00B30BE40BF50B661F771F881F991F1A94D4
:100D4A0069F760957095809590959B01AC01BD01FE
:040D5A00CF01089528
:100D5E00CF92DF92EF92FF92CF93DF936B017C01E4
:100D6E00C0E0D0E001C02196BE010D2E000C880B14
:100D7E00990B0E94F604A70196010E94E3078823AF
:100D8E0094F3DF91CF91FF90EF90DF90CF90089585
:100D9E00CF93C62F9FEF97BB88BB70E0660F771F70
:100DAE00072E000C880B990B0E94F6040E94AF06CA
:100DBE0018BA6C2F669570E080E090E00E94F60401
:080DCE000E94AF06CF910895C9
:100DD600EF93E0FF07C0A2EA2AED3FE049EC5FEBA4
:100DE6000E944F040E9425070F90039401FC90581F
:080DF600E4E5F0E00C94FF06B7
:100DFE009F938F937F936F93FF93EF939B01AC0120
:100E0E000E94EC07EF91FF910E94FD052F913F91FB
:080E1E004F915F910C94EC0769
:100E26009093C8008093C7007093C6006093C50076
:100E36001092C4001092C3005D9BFECFFC0180811E
:040E46008CB90895C6
:100E4A00092E0394000C11F4882352F0BB0F40F4CE
:100E5A00BF2B11F460FF04C06F5F7F4F8F4F9F4F0E
:020E6A000895E9
:100E6C00DB018F939F930E949807BF91AF91A29F34
:100E7C00800D911DA39F900DB29F900D112408958C
:100E8C00A29FB001B39FC001A39F700D811D1124BF
:0E0E9C00911DB29F700D811D1124911D0895AE
:100EAA004091C3005091C4002091C5003091C60002
:0C0EBA0081E04217530708F480E008951F
:100EC6004091BD005091BE002091BF003091C000FE
:0C0ED60081E04217530708F480E0089503
:100EE2009F3F31F0915020F4879577956795B7959C
:0C0EF200880F911D9695879597F908953B
:100EFE009093C2008093C1007093C0006093BF00B6
:0A0F0E001092BE001092BD0008957D
:100F1800FC01808180BD818189B982818BB98381FF
:080F28008AB9848180BD08959F
:100F30000E944607A59F900DB49F900DA49F800D21
:060F4000911D112408952B
:100F460091110C94F707803219F089508550C8F733
:020F56000895FC
:100F58009F930E94D2050F9007FCEE5F0C94EB065E
:0E0F68005058BB27AA270E944F040C9425075F
:0E0F760000240A941616170618060906089598
:0E0F840000240A94121613061406050608959A
:0E0F9200E894BB2766277727CB0197F90895CF
:0E0FA0002AE030E040E050E00E947400089526
:0C0FAE000E94310578940E94E201FDCF02
:0C0FBA0097F99F6780E870E060E0089500
:0A0FC6000E94240608F481E008955B
:080FD0000E940A030C9425079E
:080FD8000E94E5030C942507BB
:080FE0000E94D007CB01089527
:060FE8009FEF80EC08956C
:060FEE00992788270895F1
:040FF4000C94000059
:100FF80000000A0014001E00280032003C004600D1
:1010080050005A0064006E00780082008C00960040
:10101800A000AA00B400BE00C800D200DC00E600B0
:10102800F000FA0004010E01180122012C0136011A
:0A10380040014A0154015E01680105
:00000001FF
